:020000040800F2
:100000000024002011040008A9020008AB02000827
:10001000AD020008AF020008B102000800000000B5
:10002000000000000000000000000000B302000813
:10003000B502000800000000B7020008B90200087D
:100040002B0400082B0400082B0400082B040008D4
:100050002B0400082B0400082B0400082B040008C4
:100060002B0400082B0400082B0400082B040008B4
:100070002B0400082B0400082B0400082B040008A4
:100080002B0400082B0400082B0400082B04000894
:100090002B0400082B0400082B0400082B04000884
:1000A0002B040008E52800082B0400082B04000896
:1000B0002B040008F53300082B0400082B0400086B
:1000C0002B0400082B0400082B0400082B04000854
:1000D0002B0400082B0400082B0400082B04000844
:1000E0002B0400082B0400082B0400082B04000834
:1000F0002B0400082B0400082B0400082B04000824
:100100002B0400082B0400082B0400082B04000813
:100110002B0400082B0400082B0400082B04000803
:100120002B0400082B0400082B0400082B040008F3
:1001300000F002F800F05EF80AA090E8000C82449B
:100140008344AAF10107DA4501D100F053F8AFF278
:10015000090EBAE80F0013F0010F18BFFB1A43F0A5
:1001600001031847205400004054000010F8013BE0
:100170000A4413F0030408BF10F8014B1D1108BF17
:1001800010F8015B641E05D010F8016B641E01F8C5
:10019000016BF9D1002D15D010F8014B03F00C03C1
:1001A0000C2BA1EB04040ABF10F8013BA4EB831451
:1001B000A4EB032405F1010314F8016B5B1E01F8A5
:1001C000016BF9D5914238BF10F8013BD1D370478C
:1001D0000023002400250026103A28BF78C1FBD850
:1001E000520728BF30C148BF0B6070471FB51FBD05
:1001F00010B510BD03F0A1FA1146FFF7F7FF00F0AC
:1002000009F803F0BFFA03B4FFF7F2FF03BC03F0F1
:10021000C3FA000042F21075284601F009FC03F011
:1002200075F81D4C0120207002F0DAF821780129C0
:1002300004D002290AD0032908D00AE050202082E5
:1002400016486421B0FBF1F0606102E015491448E2
:100250000860284601F0ECFB02F0EAF801F022FC0D
:1002600001F001FC284601F0E3FB01F0EBFA28461F
:1002700001F0DEFB02F052FD284601F0D9FB01F04F
:1002800063FB284601F0D4FB01F0E5FF02F0CCF956
:1002900002F0FFF8FAE7000000000020407E0500B1
:1002A00000009643701400207047FEE7FEE7FEE76B
:1002B000FEE7704770477047704700000CB500219B
:1002C0004B4801910091026842F4803202604FF481
:1002D000A063026802F400320092019A521C01925B
:1002E000009A12B9019A9A42F3D10268920333D567
:1002F000012100913F490A6842F010020A600A6831
:1003000022F003020A600A6842F002020A604168B1
:10031000416041684160416841F4806141604168E9
:1003200021F47C114160416841F4E81141600168A9
:1003300041F08071016001688901FCD5416821F0BC
:1003400003014160416841F0020141604168C1F32D
:1003500081010229FAD10CBD00910CBD244810B5D1
:10036000016841F0010101604168234A1140416088
:100370000168224A11400160016821F48021016076
:10038000416821F4FE0141604FF41F018160FFF7D5
:1003900095FF1B494FF00060086010BD144910B56F
:1003A0004868184A10F00C03174803D0042B01D0FA
:1003B000082B0AD002604968134AC1F30311121DC9
:1003C000515C0268CA40026010BD4A684B6802F482
:1003D00070124FF0020413F4803F04EB924202D0FB
:1003E0004B689B0301D5094B00E0064B5A43E1E7FC
:1003F00000100240002002400000FFF8FFFFF6FE60
:1004000008ED00E000127A004C00002000093D00D9
:100410000948804709480047FEE7FEE7FEE7FEE798
:10042000FEE7FEE7FEE7FEE7FEE7FEE704480549D4
:10043000054A064B704700005D03000831010008C3
:10044000001E0020002400200020002000200020AA
:100450002849084328490860704770B50F23C478BD
:1004600001780122F4B1244C2468457804F4E06456
:10047000C4F5E064240AC4F10406E3408478B5407E
:100480001C402C4301F1E021230181F80034007865
:1004900000F01F018A404009800000F1E020C0F810
:1004A000002170BD01F01F0082404809800000F16A
:1004B000E020C0F8802170BD104A114001430E4871
:1004C000001F016070470C4A121D0029116801D0FD
:1004D000014300E08143116070474FF0E0210428A0
:1004E000086903D020F004000861704740F0040060
:1004F000FAE700000000FA050CED00E080FFFF1FA6
:10050000C54910B5884202D1012144150AE0C3490A
:10051000884202D10121041504E0C14988420AD170
:100520000121CC03204600F0D6FB2046BDE8104058
:10053000002100F0D0BB10BD10B54268B94B0C795A
:100540001A400B6842EA0422134343608368B64AA8
:100550001340D1E9024222434C7943EA44031A434F
:100560008260C26A097C22F47002491EC9B242EA62
:100570000151C16210BD00210160017141718160B2
:10058000C1600121017470470029816802D041F0E7
:10059000010101E021F001018160704700298168BB
:1005A00002D041F4807101E021F4807181607047D4
:1005B000002A4268C9B201D00A4300E08A4342607F
:1005C0007047816841F00801816070470146002052
:1005D0008968090700D501207047816841F004014E
:1005E00081607047014600208968490700D50120D5
:1005F00070470029816802D041F4A00101E021F494
:10060000A00181607047014600208968490200D539
:10061000012070474268491E22F4604242EA41319B
:10062000416070470029416802D041F4006101E057
:1006300021F400614160704770B5072409290AD987
:10064000C568A1F10A0606EB4606B440A543B340CF
:100650001D43C56007E0056901EB4106B440A543B1
:10066000B3401D4305611F23072A09D2446B521E64
:1006700002EB820293409C4391400C43446370BD63
:100680000D2A09D2046BD21F02EB820293409C43D5
:1006900091400C43046370BDC46A0D3A02EB8202C0
:1006A00093409C4391400C43C46270BD0029816813
:1006B00002D041F4801101E021F480118160704783
:1006C000C06C80B2704754484C30006870470029B5
:1006D000416802D041F4806101E021F48061416011
:1006E00070470029416802D041F4805101E021F4B3
:1006F000805141607047826822F4E0420A43826080
:1007000070470029816802D041F4004101E021F4E2
:100710000041816070470029816802D041F40211D4
:1007200001E021F4021181607047014600208968D0
:10073000890200D50120704770B5072409290AD91C
:10074000C568A1F10A0606EB4606B440A543B340CE
:100750001D43C56007E0056901EB4106B440A543B0
:10076000B3401D430561836BC3F30154121B921CFC
:1007700002EB82041F22A2409343A1400B438363F8
:1007800070BD826B491E22F4401242EA015181631E
:10079000704708B508440090026008BD08B50844D9
:1007A00028300090006880B208BD42681F4B1A4094
:1007B0000A4342607047416282627047426822F099
:1007C0001F020A4342607047134908310028086835
:1007D00002D040F4000001E020F4000008607047FF
:1007E0000246002012680A4200D001207047C94327
:1007F0000160704710B50246002054680B0AC9B268
:100800000C401168194202D0002C00D0012010BD0C
:100810006FEA112101607047002401400028014067
:10082000003C0140FFFEF0FFFDF7F1FFFFFD3FFF41
:10083000914910B5884206D10121042000F04BFAFD
:10084000002104203BE08D49884206D10121082087
:1008500000F041FA0021082031E08949884206D1A0
:100860000121102000F037FA0021102027E08549EF
:10087000884206D10121202000F02DFA00212020FD
:100880001DE08149884206D10121402000F023FA71
:100890000021402013E07D49884206D101218020BB
:1008A00000F019FA0021802009E0794988420AD134
:1008B00084150121204600F00EFA00212046BDE8F3
:1008C000104000F008BA10BD10B50121084600F034
:1008D00002FA0021BDE81040012000F0FCB9F0B59B
:1008E000CA78002502F00F03D20601D58A78134397
:1008F0000A784FF00F0E12F0FF0F4FF001021DD0DB
:10090000D0F800400F8802FA05F63740B74211D1FF
:100910004FEA850C0EFA0CF724EA070703FA0CF4E9
:100920003C43CF78282F02D0482F02D002E0466106
:1009300000E006616D1C082DE4D304600C88FF2CD8
:100940001ED944685FF0000606F1080702FA07F5B1
:100950000F882F40AF420FD14FEA860C0EFA0CF7EA
:10096000BC4303FA0CF73C43CF78282F00D14561F4
:10097000CF78482F00D10561761C082EE4D344605F
:10098000F0BD4FF6FF710180022181700421C1701A
:1009900070470246002092680A4200D0012070474A
:1009A000806880B2704702460020D2680A4200D0B8
:1009B00001207047C06880B2704701617047416193
:1009C00070470AB10161704741617047C16070476B
:1009D00041F48032826181618261816980697047FE
:1009E0002C4B10B51A684FF68074224042EA001072
:1009F0000843186010BD2849C8617047F0B5254C00
:100A0000002801DAE36900E06368420D120185B253
:100A1000C0F301579540C0F30346032F05D0C2022F
:100A20000AD50322B240934307E023F07062636863
:100A300023F07063636002E0AB4343F0706201B186
:100A40002A43002801DAE261F0BD6260F0BD10B512
:100A50008A0721F003040F49130F21440F228C68E9
:100A60009A4094438C608A68984002438A6010BD23
:100A70000949C1F8DC00704700080140000C014042
:100A8000001001400014014000180140001C01400A
:100A9000002001400000014000002042A4480168FD
:100AA00041F0010101604168A24A114041600168C2
:100AB000A14A11400160016821F480210160416870
:100AC00021F4FE0141604FF41F0181607047984995
:100AD0000A6822F480320A600A6822F480220A60DE
:100AE000B0F5803F07D0B0F5802F03D1086840F4FF
:100AF000A02008607047086840F48030F9E702469B
:100B0000002053098A49012B0AD0022B0AD0496AD6
:100B100002F01F02012393400B4200D001207047D6
:100B20000968F5E7096AF3E718B500204FF4A064F7
:100B300000903120FFF7E3FF0099491C0091A1428A
:100B400001D00028F5D03120FFF7D9FF002800D0D0
:100B5000012018BD76490A6822F0F80242EAC00076
:100B600008607047754908607047714A53680843C8
:100B700023F47C131843506070477049086670472F
:100B80006B4A516821F00301014351607047684886
:100B9000406800F00C007047654A516821F0F00190
:100BA000014351607047624A516821F4E06101439A
:100BB000516070475E494A6822F4605242EAC000C0
:100BC000486070475A4A0029517A01D0014300E039
:100BD0008143517270475949C1F8D8007047544A4F
:100BE000516821F44041014351607047504900224F
:100BF00081F8202081F82020012802D0042802D189
:100C0000052081F8200070474D4908607047484929
:100C10000A6A02430A6270474949443908607047CA
:100C200030B543494A6812F00C03464A03D0042BFE
:100C300001D0082B21D002604A680F23424C03EAFE
:100C40001212A35C0268DA4042604B68072505EA8D
:100C50001323E35C22FA03F383604B6805EAD32392
:100C6000E35CDA40C2604968032303EA9131231F41
:100C7000595CB2FBF1F1016130BD4A684B6802F486
:100C800070124FF0020413F4803F04EB924202D042
:100C90004B689B0301D52D4B00E02A4B5A43CAE712
:100CA000234A0029516901D0014300E08143516189
:100CB00070471F4A0029916901D0014300E0814338
:100CC000916170471A4A0029D16901D0014300E0BF
:100CD0008143D1617047164A0029D16801D0014390
:100CE00000E08143D1607047114A0029116901D0A9
:100CF000014300E0814311617047114940390860A8
:100D000070470E49C86470470949C8717047084860
:100D1000416A41F0807141627047054A01460020F6
:100D200092680A4200D001207047014988727047DA
:100D3000001002400000FFF8FFFFF6FE00004242F4
:100D40008004424200127A006400002000093D0045
:100D5000F94910B5884202D10121C41486E0B0F1EE
:100D6000804F09D0F54988420DD101210220FFF7BB
:100D7000BBFF0021022064E001210846FFF7B4FF19
:100D8000002101205DE0EE49884206D101210420C6
:100D9000FFF7AAFF0021042053E0EA49884206D168
:100DA00001210820FFF7A0FF0021082049E0E649C3
:100DB000884206D101211020FFF796FF0021102064
:100DC0003FE0E249884206D101212020FFF78CFF55
:100DD0000021202035E0DE49884202D1012144145F
:100DE00044E0DC49884202D10121CC043EE0DA49EA
:100DF000884202D101210C0538E0D849884202D14D
:100E000001214C0532E0D649884206D1012140201B
:100E1000FFF76AFF0021402013E0D249884206D143
:100E200001218020FFF760FF0021802009E0CE49EA
:100E300088420AD1841501212046FFF755FF002181
:100E40002046BDE81040FFF74FBFC849884202D195
:100E500001210C040AE0C649884202D101214C0458
:100E600004E0C44988420AD101218C042046FFF7DE
:100E700032FF2046BDE810400021FFF72CBF10BD17
:100E800030B50288AC4BB24C98420DD0A0420BD08A
:100E9000B0F1804F08D0A94DA84205D0A84DA84276
:100EA00002D0A84DA84203D122F070054A882A43F7
:100EB000A54DA84206D0A54DA84203D022F4407506
:100EC000CA882A4302808A8882850A8802859842D5
:100ED0000AD0A04208D0A54A904205D0A44A904228
:100EE00002D0A44A904201D1097A0186012181826F
:100EF00030BD30B5028C22F001020284028C83885E
:100F0000048B22F0020224F073050C882C430D8917
:100F100015434A882A43884DA8420BD08C4DA842DD
:100F200008D0924DA84205D0914DA84202D0914DD3
:100F3000A8420DD122F008054A8923F440732A43C0
:100F400022F004058A882A438D891D43CB892B43CF
:100F500083800483C9888186028430BD70B5028C89
:100F600022F010020284028C8488038B0D8823F403
:100F7000E6464FF6FF7303EA052535430E8922F056
:100F8000200203EA061616434A8803EA0212324395
:100F9000694EB04202D06E4EB04215D122F08006AA
:100FA0004A8924F4406403EA0212324322F04006E4
:100FB0008A8803EA021232438E8903EA86062643B0
:100FC000CC8903EA8404344384800583C98801877B
:100FD000028470BD70B5028C22F480720284028C8F
:100FE0008488838B0D8823F073031D4322F40073E0
:100FF0000E894FF6FF7202EA06261E434B8802EA6C
:10100000032333434C4EB04202D0514EB04215D16F
:1010100023F400664B8924F4405402EA032333434B
:1010200023F480668B8802EA032333438E8902EA25
:1010300006162643CC8902EA04143443848085834F
:10104000C9888187038470BD70B5028C22F48052F8
:101050000284048C8288838B0D8823F4E6464FF645
:10106000FF7303EA0525354324F400560C8903EA8F
:10107000043434434E8803EA063626432E4CA042FD
:1010800002D0334CA04205D122F480448A8903EA7D
:101090008212224382808583C988A0F8401006848A
:1010A00070BD828B22F440628283828B4FF6FF7385
:1010B00003EA01210A4382837047828B22F00C02EB
:1010C0008283828B0A4382837047028B22F44062C0
:1010D0000283028B4FF6FF7303EA01210A43028366
:1010E0007047F0B5048C24F010040484078B048C42
:1010F0004FF6FF7527F4734705EA03333B4305EAD0
:1011000002221A430C4B05EA011698420ED0104BEE
:1011100098420BD0B0F1804F08D0084B984205D0D0
:10112000074B984202D0074B984225D124F020016A
:10113000314341F0100124E0002C01400004004044
:1011400000080040000C0040001000400014004067
:1011500000340140004C0140005001400054014067
:1011600000180040001C00400020004000400140EA
:10117000004401400048014024F0A0030B4343F029
:10118000100102830184F0BD028B22F00C02028365
:10119000028B0A430283704770B5048C24F001046B
:1011A0000484058B048C4FF6FF7606EA0313134381
:1011B00025F0F305F94A2B4390420ED0F84A9042AD
:1011C0000BD0B0F1804F08D0F64A904205D0F64AD5
:1011D000904202D0F54A904202D124F0020201E08E
:1011E00024F00A020A4342F001010383018470BD26
:1011F0002DE9F05F0D4604460888E84FDFF8A0C3EC
:10120000DFF8A0834988AA882B894FF0804960B312
:10121000042832D04FF6FF7E082836D0208C9B461B
:1012200020F480502084A38B268C704600EA022292
:1012300023F473431A4300EA0B3010430EEA013ED5
:10124000BC420BD0644509D04C4507D0444505D07D
:10125000D54A944202D0D54B9C4245D126F4005148
:1012600041EA0E0141F4805143E02046FFF794FF2C
:10127000E9882046BDE8F05F86E72046FFF731FFAA
:10128000E9882046BDE8F05F1FE7208C20F48070DD
:101290002084B4F81CA0208C0EEA031313432AF018
:1012A000F30A0EEA012B43EA0A03BC420BD0644561
:1012B00009D04C4507D0444505D0BB4A944202D0E2
:1012C000BA4A944204D120F4007040EA0B0002E0D4
:1012D00020F42060084340F48070A3832084E988D0
:1012E0002046BDE8F05FE8E626F402420A4342F4F5
:1012F0008051A08320462184E988BDE8F05FD0E6D4
:101300002DE9F0410C46002649880746012501B920
:101310000226A288012A00D10225208823890028DC
:10132000384610D0FFF7DDFEE1883846FFF7CDFEE6
:1013300023892A4631463846FFF72EFFE188384692
:10134000BDE8F04120E7FFF727FFE1883846FFF7C7
:101350001BFF23892A4631463846FFF7C2FEE18843
:101360003846BDE8F041B0E610B50A884B88CC8815
:101370001A438B8823431A430B891A434B89898963
:101380001A430A43A0F8442010BD4FF6FF71818034
:1013900000210180C18041800172704700210180DD
:1013A00041808180C180018141818181C1817047FB
:1013B00000210180418001228280C180018170472B
:1013C0000021018041808180C18001814181818132
:1013D00070470029018802D041F0010101E021F0AD
:1013E000010101807047002930F8441F02D041F408
:1013F000004101E0C1F30E0101807047002A82899B
:1014000001D00A4300E08A4382817047818270479D
:101410001143A0F848107047002A828901D00A437E
:1014200000E08A4382817047018921F00701018130
:101430007047028922F070020A430281704700B5AA
:101440000346FFF7F6FF188940F00700188100BD3A
:1014500070B516460D46602904464FF0010231462C
:101460000AD0FFF799FE29462046FFF7E2FF2089C0
:1014700040F00700208170BDFFF733FEF3E730B581
:1014800004894FF6FF7505EA03231343E4B20B43C7
:101490002343038130BD10B50446FFF7F0FF2089D8
:1014A00040F07700208110BD10B50446FFF7E7FF3C
:1014B000208940F48040208110BD018582827047E0
:1014C000028822F070020A430280704770B50589D5
:1014D000048B068C25F007050D434FF6FC410C40AC
:1014E00040F201110C434FF6FF7101EA031126F09F
:1014F00022061143314305810483018470BD028BB0
:1015000022F070020A4302837047028B4FF6FF738A
:1015100022F4E04203EA0121114301837047828BE8
:1015200022F070020A4382837047828B4FF6FF736A
:1015300022F4E04203EA012111438183704700292C
:10154000018802D041F0800101E021F0800101809A
:1015500070470029818802D041F0040101E021F0A8
:101560000401818070470029818802D041F0080180
:1015700001E021F00801818070470029818802D0B4
:1015800041F0010101E021F0010181807047028BEF
:1015900022F008020A43028370470000002C014039
:1015A000003401400004004000080040000C0040EE
:1015B000028B4FF6FF7322F4006203EA012111430C
:1015C0000183E9E7828B22F008020A438283E3E782
:1015D000828B4FF6FF7322F4006203EA012111436C
:1015E0008183D9E7028B22F004020A430283D3E706
:1015F000028B4FF6FF7322F4806203EA012111434C
:101600000183C9E7828B22F004020A438283C3E785
:10161000828B4FF6FF7322F4806203EA01211143AB
:101620008183B9E7028B22F080020A430283B3E789
:10163000028B4FF6FF73C2F30E0203EA012111433E
:101640000183A9E7828B22F080020A438283A3E709
:10165000828B4FF6FF73C2F30E0203EA012111439E
:10166000818399E7028C22F002020A43028493E705
:10167000028C22F008020A4302848DE7028C4FF6A6
:10168000FF7322F0200203EA01111143018483E772
:10169000028C4FF6FF7322F0800203EA011111431E
:1016A000018479E7028C4FF6FF7322F4007203EA9B
:1016B0000121114301846FE7028C4FF6FF7322F47E
:1016C000006203EA01211143018465E7028C4FF6B1
:1016D000FF7322F4005203EA0131114301845BE7F6
:1016E00010B50123048C8B409C430484038C8A40F6
:1016F0001343038410BD10B50423048C8B409C431A
:101700000484038C8A401343038410BD30B5012444
:10171000058C00F118038C40A543058489B1082984
:101720000FD0091FC1F34E001844016821F4E041B5
:10173000016001684FF6FF7303EA02221143016062
:1017400030BD03EB5100016821F0700101600168B8
:10175000F4E70029018802D041F0020101E021F004
:101760000201018018E70029018802D041F004013C
:1017700001E021F0040101800EE70029818802D0F8
:1017800041F0800101E021F08001818004E70288BE
:1017900022F00802028002880A430280FCE6828866
:1017A00022F07002828082880A438280F4E60289F5
:1017B00022F00702028102890A430281ECE60289D3
:1017C00022F08002028102890A430281E4E68184D8
:1017D000E2E68185E0E68186DEE60187DCE6818758
:1017E000DAE6A0F84010D7E6028822F440720280C0
:1017F00002880A430280CFE6808ECDE6008FCBE6DA
:10180000808FC9E6B0F84000C6E6808CC4E6008D43
:10181000C2E602460020128A0A4200D00120BBE63E
:10182000C9430182B8E602460020138A92890B421E
:1018300002EA010202D0002A00D00120ACE6C9432E
:101840000182A9E630B587B001214FF40770FFF798
:1018500030FA4020ADF800006F4D00248DF80340B1
:1018600069462846FFF73BF88020ADF800008DF868
:10187000034069462846FFF732F81020ADF8000013
:10188000664D8DF8034069462846FFF728F8022088
:10189000ADF800008DF8034069462846FFF71FF8B1
:1018A0000125ADF800508DF8034069465C48FFF70C
:1018B00016F801A8FEF75FFE8DF8085001948DF828
:1018C00009404FF46020CDE90304564C01A920469D
:1018D000FEF732FE00212046FEF70DFF04212046D0
:1018E000FEF74FFF01231A460B212046FEF724FF87
:1018F0000123022206212046FEF71EFF01230322B8
:1019000007212046FEF718FF012304220E2120465E
:10191000FEF712FF01212046FEF736FE2046FEF7B5
:1019200050FE2046FEF752FE0028FAD12046FEF770
:1019300054FE2046FEF756FE0028FAD1012120462B
:10194000FEF7DFFE07B030BD2DE9F05FDFF8D49081
:101950000026354809F14009324F09F1040A35469D
:101960003446067080460AF1040B04213846FEF71F
:1019700037FF0028F9D0D9F800000644DAF8000053
:101980000544DBF80000042104443846FEF72FFF2D
:1019900098F80010491CC9B288F800100829E4D34F
:1019A0002248F108C161E9080162E1084162BDE82D
:1019B000F09F1C4930B540310A681C49CB69D21AE6
:1019C000184BCA6044331B680C6A1C1B154B0C6116
:1019D00048331B684D6A5B1B124D8B603C352D688C
:1019E0004D6105280BD004280BD0062809D0022809
:1019F00005D0032803D0012800D14C6030BD4A60D7
:101A000030BD4B6030BD0021B1FBF0F0704740F2BB
:101A1000B5214843000B7047000801400010014009
:101A2000000C014000240140740000201C00002034
:101A300042F21071002805D0491E0904090CFBD19F
:101A4000401EFDD1704708B54FF4E070ADF80000BE
:101A500004208DF8030003208DF8020069460F482A
:101A6000FEF73DFF08BD38B54FF4E050ADF800007B
:101A700004208DF8030003248DF8024069460748CE
:101A8000FEF72DFF1020ADF800008DF803008DF853
:101A9000024069460248FEF722FF38BD00100140AF
:101AA00000080140B9480221B94A80F82010B2FB71
:101AB000F1F14908C1617047B6490A78824204D001
:101AC0000870002800D00120704702207047B149FB
:101AD0004A78824204D04870002800D00120704724
:101AE00002207047AB498A78824204D0887000286F
:101AF00000D001207047022070472DE9F041A34C2F
:101B00004FF6FF70A44DE18C00EA4101E184218D84
:101B100000EA41012185618D00EA410060854FF4B2
:101B200080612846FEF735FFE18C0843E084E91424
:101B30002846FEF72EFF218D08432085A91428464C
:101B4000FEF727FF618D01220843608594F8261077
:101B500000252186FF2927D000297DD1A4F8325005
:101B600094F828102186FF2920D0002974D1A58659
:101B7000C0B22086FF281BD000286DD1A4F83650B3
:101B800094F8340094F83610400000EB810194F88A
:101B900032000144E170FFF78FFF208750B1022827
:101BA0000AD0012821D00AE06286D9E7A286DFE7C1
:101BB000E286E5E7A58502E0A08D401CA085E078DF
:101BC0002179884202D0A28F521CA287A28F638FF4
:101BD0009A425BD3A587884256D0072851D2DFE8C6
:101BE00000F0504147444D3E4A00A08D02F03BF8C2
:101BF0006A4A6B4B02F04AF806460F46E08D02F047
:101C000032F8684A684B02F041F832463B4601F030
:101C1000FDFD01F0FBFF87B2E785E069B0FBF7F05F
:101C200080B2608402F01FF8604A614B02F02EF827
:101C300006468846A08C02F016F85E4A5E4B02F01B
:101C400025F83246434601F0E1FD01F0DFFFA084B4
:101C50000620B7FBF0F000E018E06087AAE701F08B
:101C600025F911E001F04EF90EE001F077F90BE0F3
:101C700001F0A0F908E001F0C9F905E001F0F2F97E
:101C800002E001F0CFF86584E0782071BDE8F081D2
:101C900070B53E4C4FF6FF703F4DE18C00EA4101BC
:101CA000E184218D00EA41012185618D00EA410036
:101CB00060854FF480612846FEF76BFEE18C084397
:101CC000E084E9142846FEF764FE218D0843208550
:101CD000A9142846FEF75DFE618D01220843608548
:101CE00094F8261000252186FF2927D000294CD101
:101CF000A4F8325094F828102186FF2920D000291A
:101D000043D1A586C0B22086FF281BD000283CD135
:101D1000A4F8365094F8320094F83410800000EBA8
:101D2000410094F836100844C0B2E0702279194995
:101D300082424A6808D1521C4A6007E06286D9E7AD
:101D4000A286DFE7E286E5E7E2604D60072817D26A
:101D5000DFE800F016130D1007040A0001F0A6F8E2
:101D600011E001F0CFF80EE001F0F8F80BE001F01F
:101D700021F908E001F04AF905E001F073F902E009
:101D800001F050F86584E078207170BD00150020E6
:101D900000A60E007800002000100140BB270F0BAA
:101DA000B5A6C13F11363CBD5296EB3F88F4DBD758
:101DB0008173CE3FDE02098A1F63E83F2DE9F041BF
:101DC000F74D064600294FF01001284602D0FEF7D5
:101DD000F4FD01E0FEF7F3FD08212846FEF7EFFDD4
:101DE00000244FF480784FF4007739462846FEF7F8
:101DF000E6FD30064146284602D5FEF7DEFD01E04D
:101E0000FEF7DDFD39462846FEF7D7FD7006641C57
:101E1000060EE4B2082CE8D308212846FEF7CDFDD3
:101E20002846BDE8F0411021FEF7C7BD2DE9F0417D
:101E3000DB4D064600294FF01001284602D0FEF780
:101E4000BCFD01E0FEF7BBFD08212846FEF7B7FD0B
:101E500000244FF480784FF4007739462846FEF787
:101E6000AEFD30064146284602D5FEF7A8FD01E04A
:101E7000FEF7A3FD39462846FEF79FFD7006641C59
:101E8000060EE4B2082CE8D308212846FEF795FD9B
:101E90002846BDE8F0411021FEF78FBD10B504467D
:101EA000B031C8B20021FFF789FF102040EA1410BA
:101EB0000021FFF783FF04F00F00BDE8104040F061
:101EC000010000217AE710B500218D20FFF776FF91
:101ED00000211420FFF772FF0021BDE81040AF2061
:101EE0006CE710B500218D20FFF768FF002110205E
:101EF000FFF764FF0021BDE81040AE205EE770B53B
:101F00005FF0000404F1B000C0B20021FFF756FFFB
:101F100000210846FFF752FF00211020FFF74EFF77
:101F2000002501210020FFF749FF6D1CEDB2802D37
:101F3000F7D3641CE4B2082CE4D370BD2DE9F04162
:101F4000203A00240D468046D7B27F2803D90020CE
:101F50008D1C8046EDB22946FFF7A0FF914E00BFD1
:101F600004EB07100121305CFFF728FF641CE4B28A
:101F7000082CF5D36D1CE9B24046FFF78FFF002413
:101F800004EB071030440121007AFFF717FF641CAF
:101F9000E4B2082CF4D3BDE8F0812DE9F041203AF9
:101FA00000240D468046D7B27F2803D900208D1C1F
:101FB0008046EDB22946FFF771FF7A4E04EB071019
:101FC0000121305CFFF732FF641CE4B2082CF5D32A
:101FD0006D1CE9B24046FFF761FF002404EB0710D7
:101FE00030440121007AFFF721FF641CE4B2082C81
:101FF000F4D3D0E710B5832818D83F2916D8072383
:10200000A3EBD10301F00701C1F107040121A140B5
:10201000654CDBB204EB0010002A30F81320C9B283
:1020200001D00A4300E08A4320F8132010BD024685
:10203000012000E05043491EC9B2FBD270472DE990
:10204000F0478046002608981D4691468A46344649
:10205000470821E0281B401EC1B20A20FFF7E7FF16
:10206000B9FBF0F00A21B0FBF1F201FB120026B936
:10207000691E8C4201DA30B101263030C2B207FB52
:102080000480C0B203E007FB0480C0B220225146A6
:10209000FFF754FF641CE4B2AC42DBD3BDE8F08729
:1020A0002DE9F041984617460E460446002512E0F9
:1020B000B8F1000F3146204602D0FFF73FFF01E0A4
:1020C000FFF76BFF0834E4B2782C02D90024B61C69
:1020D000F6B26D1CEDB27A5D002AE9D15BE72DE91D
:1020E000F04F203A9C460C468346884602F0FF0992
:1020F0000025DDF824A02FE0BCF10C0F08D02B49FF
:1021000001EB09100027465D300607D5524609E06D
:10211000274909EB490001EB8000F3E7BAF1000F12
:1021200012D0002221465846FFF764FF7006641C57
:10213000060EE4B2A4EB0800604507D10BF10100E4
:10214000444600F0FF0B05E00122EBE77F1CFFB2E5
:10215000082FD9D36D1CEDB26545CDD3BDE8F08F06
:10216000F8B516460D460446012714E07E2C02D928
:1021700000241035EDB23A2D03D900242546FFF78F
:10218000BEFE00973278102329462046FFF7A7FFAE
:102190000834E4B2761C30780028E7D1F8BD00009E
:1021A000000C0140824F00085E1500209249000893
:1021B0001E4500082DE9F0411E4615460F46804693
:1021C000FFF76CFE8448002400EB85154FF00101F9
:1021D000285D16B1FFF7F2FD01E0FFF727FE641C52
:1021E000E4B2102CF2D37F1CF9B24046FFF756FE42
:1021F0005FF0000405EB04004FF0010190F82000AF
:1022000016B1FFF7DBFD01E0FFF710FE641CE4B23E
:10221000102CEFD3BFE62DE9F047984617468246CB
:1022200000260C46DDF8209012E021465046FFF7CC
:1022300035FE554608E000BF19F806000121761C5E
:10224000FFF7BCFD6D1CEDB2BD42F5D3641CE4B2DA
:102250004445EAD322E7F8B5002501210820FEF71E
:1022600028FD4FF44070ADF8000010245B4E8DF84F
:10227000034003278DF8027069463046FEF72FFBB6
:1022800001210820FEF715FD3820ADF800008DF87B
:1022900003408DF8027069463046FEF720FB382176
:1022A0003046FEF78AFB20213046FEF786FB40F6DB
:1022B000B83400206D1C401CC828FCDBA542F8DBAC
:1022C000002520213046FEF77AFB00216D1C491CB9
:1022D000C829FCDBA542F8DB20213046FEF76DFB68
:1022E0000021AE20FFF76AFD00210846FFF766FDDA
:1022F00000211020FFF762FD00214020FFF75EFD66
:1023000000218120FFF75AFD0021CF20FFF756FD65
:102310000021A120FFF752FD0021C820FFF74EFD4C
:102320000021A620FFF74AFD0021A820FFF746FD67
:1023300000213F20FFF742FD0021D320FFF73EFDA3
:1023400000210846FFF73AFD0021D520FFF736FDB2
:1023500000218020FFF732FD0021D920FFF72EFD5C
:102360000021F120FFF72AFD0021DA20FFF726FDEA
:1023700000211220FFF722FD0021DB20FFF71EFDC8
:1023800000214020FFF71AFD00212020FFF716FD55
:1023900000210220FFF712FD00218D20FFF70EFD26
:1023A00000211420FFF70AFD0021A420FFF706FDFD
:1023B0000021A620FFF702FD0021AF20FFF7FEFC61
:1023C0000021AF20FFF7FAFCFFF799FD0021084636
:1023D000FFF764FDE2E6000080000020000C0140F1
:1023E0000C4810B50A49C1600B4901630C4B0B4AFC
:1023F0004163C0E90823002303600A484C07C46016
:10240000094CC0E90C4109490360C0E9082110BD2D
:10241000CDCC4C3D701400200AD7233C00A08C4545
:102420000000FA43B8140020CDCC4C3E0000964387
:1024300038B52020ADF8000048248DF803406946E7
:10244000FE48FEF74CFA0220ADF80000FC4D8DF876
:10245000034069462846FEF742FA2815ADF8000009
:102460008DF8034069462846FEF739FAE814ADF8BE
:1024700000008DF8034069462846FEF730FAA8149C
:10248000ADF800008DF8034069462846FEF727FAAC
:1024900038BD2DE9F05F2021E848FEF77AFAE94FD0
:1024A000E94DDFF8A8A33988E94C08434FF0500BF9
:1024B0004FF064094FF0320615D100F0D5FC012031
:1024C000A8702878012804D0022809D0032807D052
:1024D00008E0E049A5F810B0B1FBF9F0686101E04F
:1024E000C4F800A03E800221D548FEF752FA398890
:1024F000B84608432CD100276F8100F093FC2F824F
:102500006F61AF7001202872D348EF81AF8187835C
:10251000D2488785C78547848784A7606760A7629C
:102520006764E7612760E762A76167612764CC4859
:102530002761E7638760476087624764C761076018
:10254000C7628761476107640761C763A8F80060D5
:102550004FF48061BA48FEF71CFAB8F8001008433F
:1025600021D12F78022F01D0032F04D1BD4920683B
:1025700001F074FD2060012F09D1288A41F29411E5
:10258000401C80B228824843B0FBF9F06861288A79
:10259000502801D9A5F810B0B3482168814200DD68
:1025A0002060A8F80060DFF898B24FF40061584648
:1025B000FEF7EFF9B8F800104746084323D1A846C4
:1025C0002D78022D01D0032D04D1A649206801F0F9
:1025D00031FF20604046012D09D1018A41F2941259
:1025E000491E89B201825143B1FBF9F14161018A6F
:1025F0000A2902D20A21A8F810102168514501DAEF
:10260000C4F800A03E804FF480515846FEF7C1F94F
:102610003988084306D0002902D03888401E388007
:10262000BDE8F09F3E80F8E7F8B501232E22002197
:102630002020FFF7BFFD01232F2200213020FFF7CC
:10264000B9FD0123302200214020FFF7B3FD012313
:10265000312200215020FFF7ADFD7B4C10257C4E30
:102660002078022801D0032854D101230C22022112
:102670000020FFF79FFD01230D2202211020FFF70C
:1026800099FD01230E2202212020FFF793FD012353
:102690000F2202213020FFF78DFD012373A20221BA
:1026A0005020FFF7FDFC306801F046FD0246042390
:1026B00002215A200095FFF7C2FC2078022801D0A1
:1026C000032827D10123102204210020FFF772FDE7
:1026D0000123112204211020FFF76CFD01230E229B
:1026E00004212020FFF766FD01230F220421302062
:1026F000FFF760FD706801F01FFD042302461946D4
:102700005A200095FFF79BFC012358A2042150207A
:10271000FFF7C6FC2078012867D101234B22022154
:102720000020FFF747FD01234E2202211020FFF772
:1027300041FD01234D2202212020FFF73BFD012313
:102740004AA202214020FFF7ABFC49480095042330
:10275000028802215A20FFF772FC01234B22042138
:102760000020FFF727FD01234C2204211020FFF752
:1027700021FD01234D2204212020FFF71BFD012311
:102780003AA204214020FFF78BFC3A48009504232D
:10279000028819465A20FFF752FC01230C22062119
:1027A0000020FFF707FD01230D2206211020FFF76F
:1027B00001FD01230E2206212020FFF7FBFC01234F
:1027C0000F2206213020FFF7F5FC012327A2062166
:1027D0005020FFF765FC306801F0AEFC0246042390
:1027E00006215A200095FFF72AFC2078022848D1BC
:1027F00001233C2206210820FFF7DCFC01233D22B7
:1028000006211820FFF7D6FC01233E2206212820AE
:10281000FFF7D0FC01233F2206213820FFF7CAFC36
:102820000123462206214820FFF7C4FC012347224A
:1028300006215820FFF7BEFC01231DE000100140D7
:10284000000C0140401400200000002000009643CE
:1028500070140020407E0500401500200015002067
:10286000B81400200000204100401C45200000005A
:102870005014002054140020482206216820FFF73D
:1028800099FC207803282CD101233C220621082022
:10289000FFF790FC01233D2206211820FFF78AFC58
:1028A00001233E2206212820FFF784FC01233F223A
:1028B00006213820FFF77EFC01234922062148200B
:1028C000FFF778FC0123472206215820FFF772FC0E
:1028D00001B00123BDE8F040482206216820FFF73F
:1028E00069BCF8BD2DE9F05FEA4C01212046FEF7F6
:1028F0009AFF002871D001212046FEF7A0FF211584
:10290000E54C2046FEF745F88500E1142046FEF729
:1029100040F805EB4005A1142046FEF73AF8DF4CDD
:102920002844C1B22170607800268142A18802D17A
:10293000491CA18005E0E180490821810121A170A5
:10294000A680D74D2968E181FFF733F8286801F0A8
:102950008AF94FF06632D34B01F098F90022D24B3E
:1029600000F0FCFF00F020FF6061E089FFF74FF806
:10297000A081CE49606901F05FFCCD4901F05AFDAC
:1029800001F0DAFB2082E0896081CA4D2078607016
:10299000A87801283ED1287A012801D100F0DFFD76
:1029A000287A022836D1A078C34F012825D1208962
:1029B000401E80B2208101281FD8A67020780728E9
:1029C00018D2DFE800F017140E1107040B0000F016
:1029D0006DFA12E000F096FA0FE01BE000F0BEFA8C
:1029E0000BE000F0E7FA08E000F010FB05E000F073
:1029F00039FB02E000F016FA7E842878012806D020
:102A0000DFF8B8B2AE4CAA46022805D067E040F61F
:102A1000AC506881BDE8F09FA989491C89B2A981A1
:102A20000229F7D9AAF80C60B88C01F0BDFB014669
:102A30006060206801F0FEFC0146A060E06801F0E3
:102A4000FBFB01462061206B01F0F6FB616901F0A0
:102A500005FB6061216A01F0BBFC01D2206A00E045
:102A600060696061616A01F0B3FB01D2656A00E0F0
:102A700065696561D4F81090E16B484601F0DAFCB5
:102A8000A16B01F0D9FB8046A0612946484601F0C0
:102A9000E5FA414601F0E2FAA062216A01F098FCF1
:102AA00001D2206A00E0A06AA062616A01F090FB96
:102AB00001D2606A00E0A06AA0622169E163594620
:102AC00001F0BAFB05467F49606C01F0B5FB294671
:102AD00001F0C4FA606401F02FFBAAF80A009AF82A
:102AE00000005546032895D1A889401C80B2A881D2
:102AF000E989491CE981022857D9B88C01F054FBB7
:102B000001466060206801F095FC0146A060E06825
:102B100001F092FB01462061206B01F08DFB6169A1
:102B200001F09CFA6061216A01F052FC01D2206A36
:102B300000E060696061616A01F04AFB01D2676A86
:102B400000E067696761D4F81090E16B484601F0D6
:102B500071FCA16B01F070FB8046A06139464846CC
:102B600001F07CFA414601F079FAA062216A01F095
:102B70002FFC01D2206A00E0A06AA062616A01F025
:102B800027FB01D2606A00E0A06AA0622169E163CC
:102B9000594601F051FB07464A49606C01F04CFB75
:102BA000394601F05BFA6064AE81E889464F01283E
:102BB0005DD94748DFF81481C7F80080406801F00C
:102BC000DBFA01467860404601F034FC0146B8600B
:102BD000F86801F031FB01463861386B01F02CFBDD
:102BE000796901F03BFA7861396A01F0F1FB01D2B1
:102BF000386A00E078697861796A01F0E9FA01D20F
:102C0000786A00E078697861D7F810A0804650466D
:102C1000F96B01F00FFCB96B01F00EFB8146B86156
:102C20004146504601F01AFA494601F017FAB862D7
:102C3000396A01F0CDFB01D2386A00E0B86AB862A7
:102C4000796A01F0C5FA01D2786A00E0B86AB86220
:102C50003969F963594601F0EFFA80461949786CF1
:102C600001F0EAFA414601F0F9F97864EE81616C0D
:102C7000786C01F0ADFB06D2606C01F05DFA688102
:102C800060697861C6E6786C01F056FA6881786907
:102C90006061BFE6002C0140001001404414002098
:102CA0003C2401406666FA3F00FEAF4000007043DE
:102CB000000084420000002000150020179AAB3D60
:102CC00070140020BD8C6A3FB814002000A03A4563
:102CD0001C00002038B501210C20FDF7EAFF01217E
:102CE000C802FDF7E6FF4FF4E060ADF800000324F2
:102CF0008DF8024018258DF803506946FE48FDF70F
:102D0000EEFD4FF46040ADF800008DF802408DF804
:102D100003506946F948FDF7E2FD38BDF0B5F84FBC
:102D20008DB03846FEF714F8FFF7D4FF002441F2C7
:102D30009315ADF82040ADF82450ADF82240ADF821
:102D400026408DF8284008A93846FEF799F820203B
:102D5000391D08807020ADF800000420ADF8040093
:102D60000126ADF80840ADF80C40ADF80260ADF8B2
:102D70000650ADF80A40ADF80E4069463846FEF7F9
:102D8000B8F869463846FEF7E9F869463846FEF76E
:102D900021F908213846FEF7FAFB08213846FEF7EC
:102DA00007FC08213846FEF70DFCF002ADF81000D4
:102DB0004010ADF81200ADF814406A20ADF81600CE
:102DC000B003ADF81840ADF81C00ADF81A4004A9E6
:102DD0003846FEF7C9FA01213846FEF721FD0121E8
:102DE0003846FEF72CFD012211463846FEF706FB59
:102DF00001213846FEF7EDFA01213846FEF7F3FAD5
:102E00004FF4A060FDF724FB19208DF82C008DF8FD
:102E10002D408DF82E408DF82F600BA8FDF71DFB7F
:102E20000DB0F0BD10B5B64C002211462046FEF79D
:102E300057FC002211462046FEF75DFC00220421CB
:102E40002046FEF74DFC002204212046FEF753FCED
:102E5000002208212046FEF743FC20460022BDE860
:102E600010400821FEF747BC10B5A54C01220021F7
:102E70002046FEF735FC042200212046FEF73BFCED
:102E8000012204212046FEF72BFC04221146204695
:102E9000FEF731FC012208212046FEF721FC2046E6
:102EA0000422BDE810400821FEF725BC10B5944C63
:102EB000012200212046FEF713FC042200212046B7
:102EC000FEF719FC012204212046FEF709FC04222A
:102ED00011462046FEF70FFC002208212046FEF78F
:102EE000FFFB002208212046FEF705FC85484189AA
:102EF0002046FEF770FC2046BDE8104041F29411D8
:102F0000FEF76BBC10B57E4C012200212046FEF777
:102F1000E7FB042200212046FEF7EDFB00220421FE
:102F20002046FEF7DDFB002204212046FEF7E3FBEE
:102F3000012208212046FEF7D3FB04220821204667
:102F4000FEF7D9FB6F4841892046FEF744FC204636
:102F5000BDE8104041F29411FEF741BC10B5684C39
:102F6000002211462046FEF7BBFB002211462046F8
:102F7000FEF7C1FB012204212046FEF7B1FB04222B
:102F800011462046FEF7B7FB012208212046FEF736
:102F9000A7FB042208212046FEF7ADFB59484189D2
:102FA0002046FEF71AFC2046BDE8104041F294117D
:102FB000FEF715BC10B5524C012200212046FEF749
:102FC0008FFB042200212046FEF795FB01220421FD
:102FD0002046FEF785FB042211462046FEF78BFBB8
:102FE000002208212046FEF77BFB00220821204614
:102FF000FEF781FB41F294112046FEF7ECFB4148BD
:1030000041892046BDE81040FEF7E7BB10B53C4CB7
:10301000012200212046FEF763FB04220021204606
:10302000FEF769FB002204212046FEF759FB00222F
:1030300004212046FEF75FFB012208212046FEF70F
:103040004FFB042208212046FEF755FB41F2941164
:103050002046FEF7C0FB2B4841892046BDE81040C2
:10306000FEF7BDBB10B5264C002211462046FEF7E8
:1030700037FB002211462046FEF73DFB01220421CA
:103080002046FEF72DFB042211462046FEF733FBB7
:10309000012208212046FEF723FB042208212046B6
:1030A000FEF729FB41F294112046FEF796FB1548E6
:1030B00041892046BDE81040FEF791BB10B5104C89
:1030C000012200212046FEF70BFB042200212046AE
:1030D000FEF711FB012204212046FEF701FB04222A
:1030E00011462046FEF707FB012208212046FEF785
:1030F000F7FA0422082107E000080140000C014013
:10310000002C0140000000202046FEF7F4FA7D4824
:1031100041892046FEF75FFB00212046FEF75DFB5C
:103120002046BDE810400021FEF759BB70B5764D32
:10313000012200212846FEF7D3FA04220021284666
:10314000FEF7D9FA012204212846FEF7C9FA042223
:1031500011462846FEF7CFFA012208212846FEF73D
:10316000BFFA042208212846FEF7C5FA654C284616
:103170006189FEF730FB61892846FEF72EFB284661
:10318000BDE870400021FEF72ABB10B55E4C01225D
:1031900000212046FEF7A4FA042200212046FEF773
:1031A000AAFA012204212046FEF79AFA04221146C7
:1031B0002046FEF7A0FA012208212046FEF790FAE9
:1031C000042208212046FEF796FA00212046FEF749
:1031D00002FB4C4841892046FEF7FFFA2046BDE835
:1031E00010400021FEF7FBBA70B5474D01220021C7
:1031F0002846FEF775FA042200212846FEF77BFADE
:10320000012204212846FEF76BFA042211462846C3
:10321000FEF771FA012208212846FEF761FA04221E
:1032200008212846FEF767FA00212846FEF7D3FA60
:10323000344C28466189FEF7D0FA61892846BDE8FA
:103240007040FEF7CCBA10B52F4C01220021204669
:10325000FEF746FA042200212046FEF74CFA01222E
:1032600004212046FEF73CFA042211462046FEF7D0
:1032700042FA012208212046FEF732FA04220821F0
:103280002046FEF738FA00212046FEF7A4FA002176
:103290002046FEF7A2FA1B4841892046BDE81040AF
:1032A000FEF79DBA70B5184D012200212846FEF7A1
:1032B00017FA042200212846FEF71DFA01220421F4
:1032C0002846FEF70DFA042211462846FEF713FAA7
:1032D000012208212846FEF703FA04220821284685
:1032E000FEF709FA074C28466189FEF774FA0021B7
:1032F0002846FEF772FA61892846BDE87040FEF75D
:103300006EBA000000000020002C014070B50121C1
:103310001D20FDF7CEFC01214648FDF76FFB464816
:1033200064210068B0FBF1F0B0F1807F14D220F08E
:103330007F404FF0E024401E606165170F21284652
:1033400000F067F80020A061072020612846BDE852
:103350007040002100F05DB8FEE73EB54FF08045BB
:103360002846FDF7F5FC01210846FDF7ABFC4FF6BA
:10337000FF70ADF804004720ADF800000024ADF860
:103380000640ADF8024069462846FDF779FDAC8459
:1033900001212846FEF71DF83EBD1FB5274C2046EB
:1033A000FDF7D6FC01210220FDF78CFC002147200F
:1033B000ADF80000ADF80410ADF80610ADF802103D
:1033C00069462046FDF75CFD012211462046FEF7C6
:1033D00015F81D208DF80C0002208DF80D0001203D
:1033E0008DF80F0003A8FDF738F800212046FDF7FF
:1033F000F0FF1FBD10B5114C01212046FEF713FA56
:10340000002805D02046BDE810400121FEF717BA7C
:1034100010BD0907090E002806DA00F00F0000F1C0
:10342000E02080F8141D704700F1E02080F80014BF
:1034300070470000000230004C00002000040040F3
:10344000C000401EFDD270474FF4FA514843401E61
:10345000FDD2704770B5B34CE088401E80B2E0806A
:10346000642801D86420E08020894FF47A71401CE0
:1034700080B22081884200D32181AB492089002578
:103480004881A088401CA0802078012812D0022802
:1034900019D0032821D0042828D005282FD00628A9
:1034A0001AD1FFF7DFFDA088E188884214D1A580FA
:1034B000012010E0FFF7FAFCA088E18888420BD1D8
:1034C000A580022007E0FFF71DFDA088E188884263
:1034D00002D1A5800320207070BDFFF73FFDA088BA
:1034E000E1888842F8D1A5800420F4E7FFF762FD67
:1034F000A088E1888842EFD1A5800520EBE7FFF79F
:1035000085FDA088E1888842E6D1A5800620E2E713
:1035100010B507281DD2DFE800F01C140C100418A9
:103520000800BDE81040FFF7C1BCBDE81040FFF740
:10353000E9BCBDE81040FFF711BDBDE81040FFF742
:1035400039BDBDE81040FFF761BDBDE81040FFF791
:1035500089BDFFF767FC75490020488410BD71499B
:1035600030B4CA88521E92B2CA80642A01D864223A
:10357000CA800A89521E93B240F6AC520B81934224
:1035800000D80A81684C0D8965818B885B1C9BB2D1
:103590008B8095420AD1CA88642A07D18A78521C46
:1035A000D2B28A70642A01D902222272CA88934256
:1035B00016D100228A800A78521CD2B20A70072AD9
:1035C00001D101220A704A7812B1012A02D005E025
:1035D000574801E0564808300978405C30BC97E70E
:1035E00030BC704770B54F4CE089401E80B2E0811E
:1035F000642801D86420E081208A811C21814FF455
:103600007A71884200D321824749208A0025488167
:10361000A089401CA081608901281ED0022825D0E5
:1036200003282DD0042834D005283BD0062842D0CA
:10363000072849D0082850D0092857D00A285ED03A
:103640000B2865D00C281AD1FFF72CFEA089E18940
:10365000884214D1A581012010E0FFF727FCA08942
:10366000E18988420BD1A581022007E0FFF726FD02
:10367000A089E189884202D1A5810320608170BDC3
:10368000FFF740FCA089E1898842F8D1A581042098
:10369000F4E7FFF74BFDA089E1898842EFD1A581CE
:1036A0000520EBE7FFF75AFCA089E1898842E6D1C3
:1036B000A5810620E2E7FFF768FDA089E18988423D
:1036C000DDD1A5810720D9E7FFF774FCA089E18946
:1036D0008842D4D1A5810820D0E7FFF785FDA089D5
:1036E000E1898842CBD1A5810920C7E7FFF78EFC8D
:1036F000A089E1898842C2D1A5810A20BEE7FFF7EF
:10370000A2FDA089E1898842B9D1A5810B20B5E746
:10371000FFF7A8FCA089E1898842B0D1A5810C20DF
:10372000ACE700005C140020000000200015002021
:1037300072550008704770477047754600F028F8CA
:10374000AE4605006946534620F00700854618B08E
:1037500020B5FCF76BFEBDE820404FF000064FF0AF
:1037600000074FF000084FF0000B21F00701AC46B6
:10377000ACE8C009ACE8C009ACE8C009ACE8C009D5
:103780008D4670470446AFF300802046FCF73BFDB2
:1037900000487047A01D002001491820ABBEFEE77D
:1037A000260002007047000021F00042A2F16052A2
:1037B000B2F5801F01F0004328BFD2F17F6C0BD916
:1037C0005FEA001C43EAC20242EB507018BF704728
:1037D00028BF20F001007047B2F5801FBCBF18461B
:1037E00070474FEA410C1CF5001F02D2084600F05A
:1037F000EABD70B500F0F4FA00000089FFF7F6BFEB
:103800004FF00040A0F580007047000010B591EA2D
:10381000030F48BF83F0004300F13E83841A71EB2D
:10382000030C05D2121943EB0C03001B61EB0C01D6
:10383000DFF824E14FEA1154A4EB135C1EEA430FB6
:1038400018BF9EEA445F73D023EA0E03DCF1200E1A
:1038500021EA045143F4801332D322FA0CFE10EB18
:103860000E0023FA0CFE41EB0E01CCF1200E03FA00
:103870000EFE10EB0E0051F10001B1F5801FCCF1EE
:10388000200E32D201EB045112FA0EF2BDE81040C4
:1038900058BF7047401C38BF5FEA420218BF7047EC
:1038A000002814BF20F0010041F100014FEA41035C
:1038B00013F5001F38BF7047A1F1C04100F0DEBA18
:1038C000012A43EB0302ACF1200CDCF11F0E32BFE6
:1038D0004FF0000E23FA0CF310EB030041EB045100
:1038E000B4EB115FD0D0A1EB045101F58011490870
:1038F0005FEA300001EB04510ED350F1000038BFF5
:1039000012FA0EFE08D1BDE81040C9E7401C38BFCE
:103910005FEA4202CAD1C3E7BDE810404FEA410363
:1039200013F5001F38BF7047A1F1C04100F0A6BADF
:103930009EEA445F08D011EA5E0FBDE8104004BF64
:1039400001F0004100207047BDE8104070B500F064
:1039500047FA00BF64FBBE3E0000E0FF2DE9C04116
:1039600030B4DFF8A0C23CEA111418BF3CEA1314CB
:1039700000F0EC8081EA03051CEA111444EAD574D6
:1039800018BF1CEA131500F0C780A4EB05044FF024
:10399000004545EAC12145EAC32341EA505143EAC3
:1039A000525304F17F74994204F500344FEAC02069
:1039B0004FEAC22208BF904200F09C804FEA136594
:1039C0000FF24016765D4FEA134506FB05F7C7F187
:1039D000807706FB07F74FEAD737A7FB03687642E5
:1039E000C8F58038A7FB06CE38BFA8F1010807FB51
:1039F00008E64FF0000EA6FB028CE6FB03CEDCF1DE
:103A0000000CCEF1004E38BFAEF1010EA6FB0C58F3
:103A10004FF000074FF00005E6FB0E87A1FB08C63C
:103A2000A0FB07CE16EB0E0645F10005E1FB07658E
:103A300015F1E04E7EBFA4F580345FEA46066D4185
:103A400016F1800745F100054FEA17274FEA066691
:103A500047EA0567A6F1DE46B6F1805F4FEA152515
:103A60001FD9384624F0010C05EBC471BCF1FE6F80
:103A700001EB0C1102D8F0BCBDE8008124425CBF10
:103A800001F5801E9EEAC47F02D4F0BCBDE800812F
:103A9000244238D4F0BCA1F1C041BDE8004100F09F
:103AA000EDB94FEAD22242EA43524FEAD323A7FBB1
:103AB00002864FEAD02040EA415007FB03661EEA27
:103AC0000E0F4FEAD12105FB026658BFA6EB005648
:103AD000B6EB00564FEA520E4EEAC37E18EB0E0EBE
:103AE00056EB530EBDD518EB02085E417F1C55F115
:103AF0000005B6E74FF480154FF000074FF00006C1
:103B00004FF00008ADE7F0BC4FF0000001F1C041FC
:103B100001F00041BDE8008111EA0C1F0CEA131509
:103B200000D00CE013EA0C1F00F025804FF00000DD
:103B3000F0BC81EA030101F00041BDE80081F0BC66
:103B4000BDE8004181EA030100F098B9F0BCBDE88E
:103B5000004170B500F044F9097EFC3E00F007B862
:103B600081EA03014FF0000001F00041704781EA53
:103B7000030100F083B9F0BCBDE800414FF0000044
:103B800021497047FFFDFBF9F7F5F4F2F0EEEDEB9C
:103B9000E9E8E6E4E3E1E0DEDDDBDAD8D7D5D4D34B
:103BA000D1D0CFCDCCCBCAC8C7C6C5C4C2C1C0BF97
:103BB000BEBDBCBBBAB9B8B7B6B5B4B3B2B1B0AF9D
:103BC000AEADACABAAA9A8A8A7A6A5A4A3A3A2A181
:103BD000A09F9F9E9D9C9C9B9A999998979796953C
:103BE00095949393929191908F8F8E8E8D8C8C8BD8
:103BF0008B8A898988888787868585848483838260
:103C0000828181800000FF070000F87F4FEA115396
:103C1000A3F58063D3F11E03A8BFD3F1200C08DB0A
:103C20004FF0004242EAC12252EA505232FA03F007
:103C3000704709420BD4102BC4BF0020704703F516
:103C4000787CBCF1FF3F05D04FF0FF3070474FF05C
:103C50000000704770B500F0C3F800BF499224809F
:103C600000207047F0E7B0FA80F310FA03F10AD0B1
:103C7000C3F11D0303F580634FEA41504FEA03523D
:103C800002EBD12170474FF000007047DFF848C1C8
:103C900070B51CEA111E1EBF1CEA13159EEA0C0F1C
:103CA00095EA0C0F00F06F8081EA030423EA4C13BD
:103CB0004EEAD47E21EA4C1141F4801143F4801382
:103CC000AE44A1FB024CA0FB0365AEF17F7E36192A
:103CD00055EB0C05A1FB034C4CF10003A0FB021CAF
:103CE00016EB0C06654153F10003094218BF46F07C
:103CF000010613F4007F0BD14FEA03314FEA053080
:103D0000340341EA155140EA16506FF003020AE00D
:103D10004FEAC3214FEAC520F40241EA555140EA77
:103D200056506FF0020202EB2E4201EB025585EA7B
:103D3000CE710AD05FEA440C18BF24F0004450F161
:103D4000000041F1000120EAD47040F2FE7C62459F
:103D500000D270BDA84214BF4FF080444FF04044E1
:103D6000002E08BF0024BEF1806FA8BFA1F1C041A2
:103D7000BDE8704080F282804FF0000001F1C04148
:103D800001F0004170479EEA0C0F0CEA131518BFB2
:103D900095EA0C0F06D04FF0000081EA030E0EF0FA
:103DA000004170BD00F01CF88900013E00F007B82A
:103DB00000F009B84FEA430C5FEA5C5C08D081EA86
:103DC000030100F05BB84FEA410C5FEA5C5CF6D19E
:103DD0004FF00000014970470000FF070000F87F26
:103DE0000EF1020E2EF0030E5EF8046B364205D47F
:103DF000012A43EB030515F5001F12D8012841EBFA
:103E0000010C1CF5001F0CD80ED14FEAD17C15F522
:103E1000001F0CEB4C0C0CF1020C08BF4CEBD37CDC
:103E200004E04FF0080C01E04FEAD37C0CEB4C05AA
:103E300026FA05F606F00706B6F1040C06D20EEBDC
:103E4000860CBDE870404CF0010C6047DFE80CF0D8
:103E5000090B02024FF000414FF00000A1F50021D4
:103E600070BD19461046012851EB010418BFD4F566
:103E7000001484BF002001F0004170BD0808A0F5C7
:103E800000114FEA3101704710B591EA030F48BFA6
:103E900083F000433FF5C2AC841A71EB030C07D2E8
:103EA00012198CF0004C43EB0C03001B61EB0C016E
:103EB000DFF8A4E14FEA1154A4EB135C1EEA430FB0
:103EC00018BF9EEA445F00F0B08023EA6E035242BE
:103ED00021EA0451C3EB6E0338BF5B1EDCF1200EF8
:103EE00025D322FA0CFE10EB0E0043FA0CFE41EB38
:103EF0000E01CCF1200E03FA0EFE10EB0E0051F174
:103F00000001CCF1200E29D412FA0EF201EB04517B
:103F1000BDE8104058BF7047401C1CBFB2F1004FB5
:103F2000704700280CBF491C20F00100704712EBBD
:103F3000020E43EB030218BF4FF0010E4EEA42029D
:103F4000ACF1200CDCF11E0E54D943FA0CFE10EB40
:103F50000E0051F1FF31CCF11E0ED5D50EF1010E40
:103F600012FA0EFE404141EB010101EB445C5FEAB5
:103F70005C5C10D910EBDE7001EB045138BFBEF170
:103F8000004FBDE8104018BF704700280CBF491C07
:103F900020F00100704730D24FEAD42C11F5001107
:103FA00024F400641BD0B1FA81F20B3AA41AA41EC7
:103FB000D2F12003914030FA03F31943904001EB12
:103FC000CC71002C01EB0451BDE81040A8BF704734
:103FD00001F1C0414FF0000001F000417047B0FA1C
:103FE00080F310FA03F100D110BDE41A173C480524
:103FF000C90AE4E701EB045110BD491001EB04517B
:10400000BDE810404FEA300002E04FF00001704779
:104010004A0008BF0042F8D0B2F5001F28BF704721
:1040200001F000414FF0000070479EEA445F07D066
:1040300011EA5E0FBDE8104004BF00210020704768
:10404000BDE8104070B5FFF7CBFE00BF40DFF63E85
:1040500083F00041104670470000E0FF90EA010F36
:1040600048BF81F0004100F1EC81421A3CBF801A48
:1040700089184FEAD0524FF07F4C1CEA410FA2EB57
:10408000D15318BF9CEA026F00F03B804FF0004C08
:104090004CEA00204CEA012121FA03FC10EB0C0C45
:1040A0001ED202F1FF325FEA1C2040EBC25038BF43
:1040B00070471CF07F0F4FEA400C18BFBCF17F4FD8
:1040C00038BF7047C3F12003994008BF20F00100BA
:1040D000BCF17F4F38BF7047A0F1C04000F073B90A
:1040E0004FEA3C00000A40EBC25028BF1CF0FF0F13
:1040F0004FEA400CE6D018BFBCF17F4F38BF704785
:10410000EAE79CEA026F05D010EA5C0F08BF00F0F6
:104110000040704710B500F010F900BF64FBBE3ED0
:10412000401058BFC0F14040491058BFC1F1404154
:104130008142EFF300807047C10DD1F19E0206DB92
:104140004FEA002343F0004323FA02F07047004295
:1041500007D54FEA4001B1F1FE4F02D24FF0000007
:10416000704710B500F0E9F84992248000207047AC
:104170006FEA20007047000010F0004148BF404245
:10418000B0FA80F310FA03F2C3F19D030BD051EAA9
:10419000C35101EB1220530638BF704700F10100F4
:1041A00008BF20F001007047B0FA80F310FA03F264
:1041B000C3F19D030AD0D90501EB1220530638BF85
:1041C000704700F1010008BF20F0010070470000B7
:1041D00050EA010C00F113801CF5000F58BFBCF52C
:1041E000000F01D48842704707D710F5000F58BF61
:1041F00011F5000F15D488427047894270471CF5AD
:10420000000F04D5BCF5000FF7D5814270474FF081
:10421000807C1CEB400F38BF1CEB410F01D2814268
:10422000704710B500F089F8922449004FF0005013
:104230004FF08051FFF774BF4FF47F0C1CEAD0128F
:104240001EBF1CEAD11392EA0C0F93EA0C0F00F088
:10425000478090EA010F48BF42F480724FF0004C53
:104260004CEA00204CEA012102EB0302A0FB0113FF
:10427000A2F50002002918BF43F001035B0028BF2C
:104280004FEA330342EB22425FEA132C4CEBC2505D
:104290002EBFBCEB436FB2F57C0F70474FEA036C47
:1042A000BCF1004F08BF20F00100B2F57C0F38BF11
:1042B00070470BD582F0FF0212F5803FC8BF7047F0
:1042C00000F1C040D8BF00F00040704700F5000C7E
:1042D0005FEA4C0C48BF7047B0F1C04000F073B8C3
:1042E00090EA010F0CEAD11348BF42F48072624594
:1042F00038BF634504D280EA010000F000407047F7
:1043000010B500F01AF800BF8900013E00F007B8B0
:1043100000F009B85FEA410C5FEA1C6C08D080EA43
:10432000010000F050B85FEA400C5FEA1C6CF6D167
:104330004FF00040A0F5800070470EF1020E2EF005
:10434000030E5EF8044B244204D44FEA4102B2F15A
:104350007F4F11D84FEA4003B3F17F4F0CD80ED1F5
:104360004FEAD07CB2F17F4F0CEB4C0C0CF1020CFD
:1043700008BF4CEBD17C04E04FF0080C01E04FEAA1
:10438000D17C0CEB4C0324FA03F404F00704B4F1E1
:10439000040C06D20EEB840CBDE810404CF0010C6E
:1043A0006047DFE80CF0070802024FF00040A0F57C
:1043B000800010BD0846420018BFD2F1807288BF4D
:1043C00000F0004010BDFF2141EAD050C005704709
:1043D00051EA000C00F113801CF5000F58BFBCF52A
:1043E000000F01D48142704707D711F5000F58BF65
:1043F00010F5000F15D481427047894270471CF5B3
:10440000000F04D5BCF5000FF7D5884270474FF078
:10441000807C1CEB410F38BF1CEB400F01D288425F
:10442000704780EA010081EA000180EA0100FFF79D
:10443000F8BE000090EA010F48BF81F000413FF54F
:1044400014AE421A04D882F00042A0EB02001144DC
:104450004FEAD0524FF07F4C1CEA410FA2EBD153F0
:1044600018BF9CEA026F4AD04FF0004C4CEA002083
:104470004CEA012121FA03FCB0EB0C0C0FD412F032
:10448000FE0F36D05FEA4C001DD5001240EBC25043
:1044900038BF70471CF03F0F18BF70470BE0A2F108
:1044A00001025FEA1C2040EBC25038BF70471CF08D
:1044B0007F0F18BF7047C3F12003994014BF401EFF
:1044C00020F00100704780084FEA122308BF7047B0
:1044D000B0FA80FCA2EB0C02CCF1280C60FA0CF0D4
:1044E00093EA122F04BF00EBC25070474FEAC3702B
:1044F0007047130A5FEADC1008BF7047F6E79CEAD2
:10450000026F04D010EA5C0F08BF0020704710B59E
:10451000FFF713FF40DFF63E81F0004070470000D8
:1045200000000000000000000000000000003F400C
:10453000000000000000000030004000300040009B
:10454000000009000BC03D000BC03D00090018C071
:1045500024407FE0224031800000180024C01B006E
:104560000D803240018003801C4027401C800740A2
:10457000004010006000000000000000000000008B
:10458000000000001F80204040200000402020400C
:104590001F8000000000090006001F8006000900BF
:1045A0000000040004003F8004000400000000102C
:1045B000006000000000000000000400040004008F
:1045C00004000400000000000040000000000000A3
:1045D0000000002001C006003800400000001F80DD
:1045E0002040204020401F800000000010403FC0BD
:1045F00000400000000018C0214022402440184024
:10460000000010802040244024401B800000020055
:104610000D0011003FC0014000003C8024402440B8
:104620002440238000001F80244024403440038025
:1046300000003000200027C03800200000001B8050
:104640002440244024401B8000001C0022C0224043
:1046500022401F8000000000000008400000000011
:1046600000000000000004600000000000000000E6
:1046700004000A00110020804040090009000900E0
:1046800009000900000000004040208011000A00DD
:1046900004001800200023402400180000001F80A0
:1046A0002040274029401F400000004007C039003B
:1046B0000F0001C0004020403FC0244024401B8028
:1046C00000001F802040204020403080000020401B
:1046D0003FC0204020401F80000020403FC02440B9
:1046E0002E4030C0000020403FC024402E0030004B
:1046F00000000F0010802040224033800200204044
:104700003FC0040004003FC02040204020403FC084
:104710002040204000000060202020203FC02000DA
:10472000200020403FC024400B0030C020402040EB
:104730003FC020400040004000C03FC03C0003C0DC
:104740003C003FC0000020403FC00C4023003FC061
:1047500020001F802040204020401F80000020407B
:104760003FC024402400180000001F802140214049
:1047700020E01FA0000020403FC02440260019C0B8
:10478000004018C024402440224031800000300006
:1047900020403FC020403000000020003F8000400B
:1047A00000403F80200020003E0001C0070038008C
:1047B0002000380007C03C0007C03800000020403F
:1047C00039C0060039C0204000002000384007C032
:1047D000384020000000304021C02640384020C032
:1047E0000000000000007FE04020402000000000AA
:1047F00070000C00038000400000000040204020BA
:104800007FE00000000000002000400020000000C9
:104810000000001000100010001000100010000038
:104820000000400000000000000000000280054081
:10483000054003C0004020003FC004400440038006
:104840000000000003800440044006400000000017
:104850000380044024403FC0004000000380054026
:10486000054003400000000004401FC024402440D5
:104870002000000002E005500550065004202040B2
:104880003FC00440040003C000400000044027C0B3
:1048900000400000000000100010041027E000009D
:1048A000000020403FC00140070004C004402040F9
:1048B00020403FC000400040000007C0040007C087
:1048C000040003C00000044007C00440040003C00B
:1048D00000400000038004400440038000000410F6
:1048E00007F00450044003800000000003800440EF
:1048F000045007F00010044007C002400400040008
:104900000000000006400540054004C00000000013
:1049100004001F80044000400000040007800040A5
:10492000044007C000400400070004C001800600E6
:104930000400060001C0070001C00600000004409A
:1049400006C0010006C0044000000410071004E087
:104950000180060004000000044005C00640044039
:1049600000000000000004007BE040200000000088
:1049700000000000FFF000000000000040207BE08D
:1049800004000000000040008000400020002000E3
:1049900040000000000000000000000000000000D7
:1049A00000000000000000001FCC000C0000000010
:1049B00000000000080030006000080030006000C7
:1049C0000000022003FC1E20022003FC1E20022007
:1049D000000000000E1811043FFF10840C78000046
:1049E00000000F0010840F3800C00778188400788A
:1049F000000000780F8410C411240E9800E4008495
:104A000000080800680070000000000000000000BE
:104A1000000000000000000007E018182004400219
:104A20000000000040022004181807E00000000009
:104A300000000240024001800FF00180024002406D
:104A400000000080008000800FF80080008000805F
:104A500000000001000D000E00000000000000003A
:104A60000000000000800080008000800080008046
:104A700000800000000C000C00000000000000009E
:104A80000000000000060018006001800600180009
:104A90002000000007F0080810041004080807F0C0
:104AA00000000000080408041FFC000400040000CB
:104AB000000000000E0C10141024104411840E0C81
:104AC000000000000C1810041104110412880C706E
:104AD0000000000000E00320042408241FFC002440
:104AE000000000001F981084110411041088107039
:104AF0000000000007F008881104110418880070F5
:104B0000000000001C00100010FC13001C0010002E
:104B1000000000000E3811441084108411440E3837
:104B2000000000000700088C10441044088807F0BB
:104B30000000000000000000030C030C0000000057
:104B4000000000000000000101060000000000005D
:104B5000000000000080014002200410080810043A
:104B60000000022002200220022002200220022057
:104B7000000000001004080804100220014000801A
:104B8000000000000E001200100C106C10800F00CE
:104B9000000003E00C1813E4142417C4082807D0FD
:104BA00000000004003C03C41C40074000E4001C5B
:104BB000000410041FFC1104110411040E8800707D
:104BC000000003E00C1810041004100410081C105E
:104BD000000010041FFC100410041004080807F063
:104BE000000010041FFC1104110417C4100408185D
:104BF000000010041FFC1104110017C01000080071
:104C0000000003E00C181004100410441C7800404D
:104C1000000010041FFC10840080008010841FFC22
:104C200010040000100410041FFC10041004000005
:104C3000000000030001100110011FFE1000100011
:104C4000000010041FFC110403801464181C1004DD
:104C5000000010041FFC1004000400040004000CF9
:104C6000000010041FFC1F0000FC1F001FFC1004AC
:104C7000000010041FFC0C04030000E010181FFCCF
:104C8000100007F00808100410041004080807F0CA
:104C9000000010041FFC10841080108010800F0092
:104CA000000007F0081810241024101C080A07F24E
:104CB000000010041FFC1104110011C011300E0C73
:104CC000000400000E1C11041084108410441C38D1
:104CD00000001800100010041FFC10041000180041
:104CE000000010001FF810040004000410041FF856
:104CF000100010001E0011E0001C007013801C004A
:104D000010001FC0103C00E01F0000E0103C1FC05E
:104D100000001004180C163401C001C01634180C21
:104D2000100410001C00130400FC13041C001000ED
:104D300000000804101C1064108413041C041018D4
:104D400000000000000000007FFE40024002400220
:104D50000000000030000C0003800060001C000315
:104D6000000000004002400240027FFE0000000000
:104D70000000000000002000400040004000200033
:104D8000000000010001000100010001000100011C
:104D90000001000040004000200000000000000072
:104DA000000000000098012401440144014400FC7B
:104DB000000410001FFC008801040104008800703A
:104DC0000000000000700088010401040104008854
:104DD00000000000007000880104010411081FFC9D
:104DE0000004000000F8014401440144014400C8EB
:104DF00000000000010401040FFC11041104110063
:104E00001800000000D601290129012901C9010665
:104E1000000010041FFC008401000100010400FCDC
:104E2000000400000104190419FC0004000400003F
:104E300000000000000300010101190119FE00003B
:104E4000000010041FFC0024004001B4010C010408
:104E500000000000100410041FFC00040004000007
:104E60000000010401FC0104010001FC0104010037
:104E700000FC010401FC008401000100010400FCAD
:104E80000004000000F8010401040104010400F81A
:104E90000000010101FF0085010401040088007089
:104EA000000000000070008801040104010501FFFA
:104EB00000010104010401FC0084010401000180DF
:104EC0000000000000CC01240124012401240198E9
:104ED000000000000100010007F8010401040000C7
:104EE0000000010001F8000400040004010801FCB6
:104EF0000004010001800170000C001001600180BD
:104F0000010001F0010C003001C00030010C01F083
:104F1000010000000104018C00740170018C010487
:104F20000000010101810171000E00180160018083
:104F3000010000000184010C013401440184010CD2
:104F40000000000000000000000001003EFC4002E4
:104F500040020000000000000000FFFF0000000011
:104F600000000000400240023EFC01000000000082
:104F70000000000060008000800040004000200031
:104F80002000000000000000000000000000000001
:104F90000000000000F800000000000000333000B6
:104FA000000000100C06100C0600000000000000BD
:104FB000000040C07840C0784000043F04043F0433
:104FC0000400007088FC08300000001820FF211E3B
:104FD0000000F008F000E018000000211C031E2172
:104FE0001E0000F00888700000001E2123241927ED
:104FF000211010160E00000000000000000000004C
:105000000000000000E01804020000000007182063
:10501000400000020418E0000000004020180700D3
:105020000000404080F0804040000202010F010279
:105030000200000000F0000000000101011F01015A
:105040000100000000000000000080B070000000BF
:10505000000000000000000000000001010101014B
:1050600001010000000000000000003030000000DE
:1050700000000000000080601804006018060100B5
:10508000000000E010080810E000000F10202010C1
:105090000F00001010F8000000000020203F20202A
:1050A00000000070080808887000003028242221C1
:1050B0003000003008888848300000182020201177
:1050C0000E000000C02010F8000000070424243F58
:1050D000240000F808888808080000192120201101
:1050E0000E0000E0108888180000000F1120201129
:1050F0000E0000380808C83808000000003F000013
:1051000000000070880808887000001C22212122FD
:105110001C0000E010080810E000000031222211FD
:105120000F00000000C0C000000000000030300090
:10513000000000000080000000000000806000000F
:105140000000000080402010080000010204081048
:105150002000404040404040400004040404040457
:105160000400000810204080000000201008040205
:105170000100007048080808F00000000030360107
:105180000000C030C828E810E000071827242314C6
:105190000B000000C038E0000000203C2302022782
:1051A000382008F8888888700000203F20202011CF
:1051B0000E00C0300808080838000718202020100A
:1051C000080008F808080810E000203F2020201000
:1051D0000F0008F88888E8081000203F20202320CE
:1051E000180008F88888E8081000203F2000030015
:1051F0000000C03008080838000007182020221ED0
:10520000020008F808000008F808203F21010121E9
:105210003F20000808F8080800000020203F202058
:10522000000000000808F8080800C08080807F00A7
:10523000000008F888C028180800203F2001263800
:10524000200008F8080000000000203F2020202057
:10525000300008F8F800F8F80800203F003F003F51
:10526000200008F830C00008F808203F2000071888
:105270003F00E01008080810E0000F102020201068
:105280000F0008F808080808F000203F210101017C
:105290000000E01008080810E0000F18242438501F
:1052A0004F0008F8888888887000203F2000030C91
:1052B000302000708808080838000038202121229A
:1052C0001C00180808F8080818000000203F2000FB
:1052D000000008F808000008F808001F202020201F
:1052E0001F000878880000C83808000007380E0141
:1052F0000000F80800F80008F800033C0700073C2D
:105300000300081868808068180820302C03032CDC
:1053100030200838C800C83808000000203F2000AE
:10532000000010080808C83808002038262120206E
:105330001800000000FE020202000000007F404052
:105340004000000C30C000000000000000010638E2
:10535000C00000020202FE000000004040407F004A
:10536000000000000402020204000000000000002F
:10537000000000000000000000008080808080802D
:105380008080000202040000000000000000000015
:10539000000000008080808000000019242222226A
:1053A0003F2008F8008080000000003F11202011FD
:1053B0000E000000008080800000000E11202020E0
:1053C0001100000000808088F800000E11202010DD
:1053D0003F200000808080800000001F22222222C7
:1053E0001300008080F0888888180020203F20204B
:1053F00000000000808080808000006B9494949373
:10540000600008F8008080800000203F210000201C
:105410003F2000809898000000000020203F2020BE
:105420000000000000809898000000C08080807F0D
:10543000000008F8000080808000203F24022D300A
:105440002000000808F8000000000020203F202075
:1054500000008080808080808000203F20003F20EE
:10546000003F8080008080800000203F21000020DD
:105470003F200000808080800000001F202020202E
:105480001F00808000808000000080FFA12020118C
:105490000E000000008080808000000E112020A0FF
:1054A000FF80808080008080800020203F212000BD
:1054B00001000000808080808000003324242424A8
:1054C0001900008080E0808000000000001F202084
:1054D00000008080000000808000001F202020103D
:1054E0003F20808080000080808000010E30080610
:1054F000010080800080008080800F300C030C3021
:105500000F0000808000808080000020312E0E314E
:105510002000808080000080808080818E7018064E
:10552000010000808080808080000021302C2221BA
:10553000300000000000807C020200000000003FFC
:10554000404000000000FF00000000000000FF00DD
:1055500000000002027C800000000040403F00008C
:105560000000000601010202040400000000000027
:105570000000000501030206040000040602030106
:1055800005000000A4550008000000207014000071
:105590006C0100081C5D000870140020900F0000D2
:1055A000D001000852000103340100016006E80345
:1055B0000000180D7004A24A0450600C0203040697
:1055C00007080902040608106114A140000F100228
:1055D000FE9292FE0200101116F0141310600010DB
:1055E00010101F0808FF048141310D030D31418166
:1055F00020F00F1010FF9020984828090E2848A886
:105600001820100C0242817F0040404242427E043A
:105610000210406020099453321E325210001F02C3
:10562000137EE343FF49010612FF0000101108CC6E
:105630004A49484ACC18007F88888482E03E0009A5
:1056400015121252927F00007E20100400F888018B
:1056500022FF050613F86215011308085EF4068898
:10566000889F80F08033808201040914E2A2928A2C
:1056700086828080A504041640807FC0100A2424FE
:10568000A4FEA3220022CCAA0113E020070601FFFA
:1056900000010401040513FF02020280500410906F
:1056A00008C3F2084004104F0444827F0180804008
:1056B000432C10284681800010091010D0FF901054
:1056C00000FE9C0212FEC0130403D8140483601F62
:1056D000060805103F404078201006FA8282FE80BE
:1056E00040000610126282621AE0080F1008184883
:1056F00084443F007F504846414658402408404477
:10570000C44444444006031010109F0810120010B7
:105710003C131014B840300E014080403F5F63FEE0
:1057200022010113C1600400FF42010912814500FA
:1057300012203E12E248061420002804130C030332
:105740000F10010620031D1B03080C12CC0004F4EB
:105750009494FF9494F4043C0C0D10201F204844B2
:1057600042415F414244484003200B0000FC242496
:1057700024FC25262408011041080E1140308F809A
:10578000844C55252525554C80A0280A100C0484EE
:1057900014640506F4620B10140C40000E1184848E
:1057A000444724140C070C14244484A1040618FE56
:1057B000225A86000004071D00FF04080710001588
:1057C0003F0314A2623F35001404444E45E504042F
:1057D0001145464C002C061088C4330060040E139B
:1057E000C260044F020158030D17830310060830EE
:1057F00000FF200111050711222CC0280604020118
:10580000FF80400C05110618204040032521240488
:1058100024548F1E05121F1406413900003CE50870
:1058200008144C404070040931400C0A1514E4AFD0
:10583000A4A4A4AFE4044003040A11894B2A1A0E5D
:105840001A2A4B88C0231090013D00030F11111636
:10585000C1051C052060203F1B0304081400030C35
:10586000102040F8801C0440A09EC4040404129E32
:10587000A020814C05003F90883F040E1241E004B7
:1058800010081715D55557557D040C0411D515175B
:10589000FB04400540407F5501127F0C0D1242036E
:1058A00011B70C051310F010107F061C0800818141
:1058B000414121117D060C07121121414181814096
:1058C000032D9B033EFEA5030113600D1C80050CF8
:1058D0000E128060F80700047454555654547480B6
:1058E000031DBF030C0C1203010545857D0505054D
:1058F000010341042D150612FFE80113DE250051B6
:10590000040113225D40070C09148888E98E8888F9
:10591000A89840070409110080844B281028477F6D
:10592000080F104030EF242480E49C105454FF549E
:105930007C0008105101017F21512618274445455C
:105940005F454544801D00080C071300F800020461
:1059500018C10641C00C0A503F108840300C0B3073
:10596000C080060C0E1060028C004464544D464406
:105970005464C400051C0804047E0180403EE70511
:105980001D03080E118020081D7A062C07F2929242
:1059900092021242030D10E0072C06403F80601F68
:1059A000BD045107ED80090C0E1184E45CC40008AD
:1059B000C8398E0808CC3B800711FB40073F0063C5
:1059C0005A46E1050D13420608081398A44744A45B
:1059D000540C7E080D130081898944444A312111F9
:1059E00009057E2DFB075DC0070211087F1DF40528
:1059F00018044142243D0C041324424100063D3A60
:105A0000040C0811404848487F48C860063D4008DB
:105A10000C09110002020A1242827F80080D3E40EA
:105A2000083D81033F109005040E11D0800A3E010D
:105A30005C031F415E3F050F114E4140034DC00402
:105A40001D66040D1782032C04007F2017030E151A
:105A5000FF9B091D7F071C0400FE82050B0C04132D
:105A6000929282C20819BC0C08127F001E121212F8
:105A70005E43060D40C0071C061090945850BD08A8
:105A80000C051158549410C0053C0440417E3C0B59
:105A900021030F11414101071C04FC0404020812F8
:105AA000E404031424FCFF0C0B91282929292F2935
:105AB0002B2D287F800A3DBB074E7EBE070111DEDD
:105AC0001C048040203E083D3D0A1D42070D113E4A
:105AD000031C090C0555D555057F8565060E110576
